:100000000C9434000C9449000C9449000C94490061
:100010000C9449000C9449000C9449000C9449003C
:100020000C9449000C9449000C9449000C9449002C
:100030000C9449000C9449000C9449000C9449001C
:100040000C9449000C9449000C9449000C9449000C
:100050000C9449000C9449000C9449000C944900FC
:100060000C9449000C94490011241FBECFEFD8E036
:10007000DEBFCDBF11E0A0E0B1E0ECE5F6E002C0EC
:1000800005900D92AA30B107D9F70E944B000C944D
:100090002C030C940000CF93DF93CDB7DEB72A97E3
:1000A0000FB6F894DEBF0FBECDBF8AE0E0E0F1E00E
:1000B000DE01119601900D928A95E1F785E4809317
:1000C0007C0087E880937A008FE087B980EF8AB957
:1000D0008EE184B984E08BB91FE08FEE882E9AE020
:1000E000E92EF12C27EF922E3BEFA32E44E6C42EEF
:1000F000D12C5DEFB52E0FEF80917A008064809354
:100100007A0080917A0084FFFCCF80917800609122
:10011000790079B0762F682F90E080E00E9431025C
:1001200025E732E04AEF5EE30E94BF0220E030E0C4
:1001300048E452E40E948E010E94FB01072E000C4D
:10014000880B990B0E94330272FC79C020E030E0EA
:1001500040E251E40E94BF020E94FB01FB0188B112
:10016000807F896088B98BB1612F0E945A019063AA
:100170009BB985B88FE19EE40197F1F700C00000BC
:1001800088B1807F88B93BB1CF01B7010E94660179
:10019000AB01A1E0B0E0AC0FBD1FA80FB11D2C91C9
:1001A000207F832F612F0E945A01292B2BB995B8EC
:1001B0008FE19EE40197F1F700C0000028B1CA0169
:1001C000B7010E946601A1E0B0E0AC0FBD1FA80F0F
:1001D000B11D9C919F70207F922B98B98BB12C916F
:1001E0002077612F0E945A019068292B2BB9A5B85E
:1001F0008FE19EE40197F1F700C0000028B1CF0124
:10020000B6010E946601E1E0F0E0EC0FFD1FE60F91
:10021000F11D80818F70207F822B88B98BB1208166
:10022000207F612F0E945A01292B2BB9B5B88FE18D
:100230009EE40197F1F700C0000005B95DCF26E606
:1002400036E646EE5FE30E94BF0220E030E040E089
:1002500052E40E948F0120E030E040E251E40E942D
:10026000BF020E94FB01FB0188B1807F886088B9D2
:100270008BB1612F0E945A0190679BB985B88FE1BD
:100280009EE40197F1F700C0000028B1CF01B7014B
:100290000E946601AB01A1E0B0E0AC0FBD1FA80F4A
:1002A000B11D9C919F70207F922B98B98BB12C919E
:1002B000207F78CF991B79E004C0991F961708F02A
:1002C000961B881F7A95C9F78095089597FB072E8E
:1002D00016F4009407D077FD09D00E947A0107FC3C
:1002E00005D03EF4909581959F4F08957095619546
:1002F0007F4F0895AA1BBB1B51E107C0AA1FBB1F5C
:10030000A617B70710F0A61BB70B881F991F5A95A1
:10031000A9F780959095BC01CD0108955058BB2751
:10032000AA270E94A6010C9485020E94770238F049
:100330000E947E0220F039F49F3F19F426F40C94B9
:1003400074020EF4E095E7FB0C946E02E92F0E9414
:10035000960258F3BA17620773078407950720F0CF
:1003600079F4A6F50C94B8020EF4E0950B2EBA2F92
:10037000A02D0B01B90190010C01CA01A0011124AB
:10038000FF27591B99F0593F50F4503E68F11A1657
:10039000F040A22F232F342F4427585FF3CF4695E8
:1003A00037952795A795F0405395C9F77EF41F160A
:1003B000BA0B620B730B840BBAF09150A1F0FF0FD4
:1003C000BB1F661F771F881FC2F70EC0BA0F621FC0
:1003D000731F841F48F4879577956795B795F795B0
:1003E0009E3F08F0B0CF9395880F08F09927EE0F45
:1003F0009795879508950E9402026894B1110C9414
:10040000B90208950E949E0288F09F5798F0B92F74
:100410009927B751B0F0E1F0660F771F881F991F39
:100420001AF0BA95C9F714C0B13091F00E94B80221
:10043000B1E008950C94B802672F782F8827B85F31
:1004400039F0B93FCCF3869577956795B395D9F791
:100450003EF490958095709561957F4F8F4F9F4F9B
:100460000895E89409C097FB3EF4909580957095A7
:1004700061957F4F8F4F9F4F9923A9F0F92F96E9F0
:10048000BB279395F695879577956795B795F11165
:10049000F8CFFAF4BB0F11F460FF1BC06F5F7F4F02
:1004A0008F4F9F4F16C0882311F096E911C0772314
:1004B00021F09EE8872F762F05C0662371F096E81D
:1004C000862F70E060E02AF09A95660F771F881FEC
:1004D000DAF7880F9695879597F9089597F99F67AA
:1004E00080E870E060E008959FEF80EC08950024BC
:1004F0000A941616170618060906089500240A9489
:1005000012161306140605060895092E0394000C0E
:1005100011F4882352F0BB0F40F4BF2B11F460FF9D
:1005200004C06F5F7F4F8F4F9F4F089557FD9058C6
:10053000440F551F59F05F3F71F04795880F97FBA7
:10054000991F61F09F3F79F0879508951216130661
:100550001406551FF2CF4695F1DF08C01616170690
:100560001806991FF1CF86957105610508940895C5
:10057000E894BB2766277727CB0197F908950E9457
:10058000D2020C9485020E94770238F00E947E020B
:1005900020F0952311F00C946E020C947402112437
:1005A0000C94B9020E94960270F3959FC1F3950FC7
:1005B00050E0551F629FF001729FBB27F00DB11DE7
:1005C000639FAA27F00DB11DAA1F649F6627B00D77
:1005D000A11D661F829F2227B00DA11D621F739F60
:1005E000B00DA11D621F839FA00D611D221F749F6E
:1005F0003327A00D611D231F849F600D211D822FB5
:10060000762F6A2F11249F5750409AF0F1F08823DB
:100610004AF0EE0FFF1FBB1F661F771F881F915008
:100620005040A9F79E3F510580F00C946E020C9447
:10063000B9025F3FE4F3983ED4F3869577956795CA
:10064000B795F795E7959F5FC1F7FE2B880F911D32
:0C0650009695879597F90895F894FFCFD0
:0A065C003F065D4F666B7B0E7F6F5B
:00000001FF
